:03000000020008F3
:03007F0002000379
:0500030012015880FE0F
:08008200AA82AB837C007D0023
:0E008A00C3EC9AED9B50070CBC00F50D80F204
:010098002245
:060099001204110205A68D
:07009F0075080075090A75E0
:0600A6000A0A750B0A7541
:0600AC000C0A750D007541
:0600B2000E00750F117530
:0600B8001007751111751F
:0600BE0012077513007526
:0600C400140A7515007519
:0600CA0016007517007519
:0600D000181175190875F6
:0600D6001A11751B0875EC
:0600DC001C00751D1975E2
:0A00E2001E00751F007A007B307CC1
:0800EC0000753D00753E1D7515
:0C00F4003F0F758200C002C003C0041260
:080100000690D004D003D002E8
:0D0108008A828B838CF0C002C003C00412F9
:06011500051C85825E90CE
:09011B00000875F040120C9990E7
:09012400000E75F0401211C790A5
:0C012D00001775F0401211C7904E201210
:0C0139000082D004D003D0027401B50D88
:05014500C27544D775EE
:03014A00451375E5
:09014D0046807543077582080223
:0201560006C7DA
:0601580012009912009F45
:02015E0080FE21
:0C13D7002047414D45204F564552200054
:0700610075200075212075D8
:02006800220074
:0A01600074012520FAE43521FBAC00
:0C016A00228A828B838CF0121381FA53DE
:060176000203BA03E522BA
:0C017C00AA82C002120160D002740125AA
:0701880020FBE43521FCAD72
:0B018F00228B828C838DF0EA02127834
:0A019A00AA82C002120160AB20AC83
:0A01A40021AD228B828C838DF0E5E3
:0501AE0023121278127B
:0B01B3000160D00274012520FBE43540
:0A01BE0021FCAD228B828C838DF0B2
:0401C800EA021278BD
:0A01CC00AA82C002120160AB20AC51
:0A01D60021AD228B828C838DF0E5B1
:0501E000241212781248
:0501E5000160AB20AC3D
:0A01EA0021AD228B828C838DF0E59D
:0501F400251212781233
:0B01F9000160D00274012520FBE435FA
:0A02040021FCAD228B828C838DF06B
:04020E00EA02127876
:0A021200AA82C002120160AB20AC0A
:04021C0021AD22AE40
:0C022000268B828C838DF0EE1212781277
:05022C000160AB20ACF5
:0402310021AD229049
:0E023500002775F0401213818B828C838DF0B0
:0B024300121278120160D00274012535
:07024E0020FBE43521FCADAB
:0B025500228B828C838DF0EA0212786D
:0A026000858226858327758224120B
:04026A0002128528CF
:07026E00237582C002019A12
:0A02750085822685832775822412F6
:09027F0002127582C112017CAA71
:0402880020AB21ACDA
:0C028C00228A828B838CF0121381F58291
:010298002243
:0A02990074012520FAE43521FBACC6
:0C02A300228A828B838CF0121381FA53A4
:0602AF000208BA08E52276
:0A02B500AA82AB838A268B2775828C
:0E02BF0024C002C0031202127582B012017C2C
:0902CD00D003D002E4F52EF52F58
:0602D600C3E52E952CE5A6
:0A02DC002F952D503F0ABA00010BC8
:0C02E600C002C003120299D003D002AE87
:0402F20020AF21A870
:0402F60022E52E25AA
:0502FA0029F9E52F3594
:0A02FF002AFCAD2B89828C838DF060
:0E030900121381F98E828F8388F0121278050C
:060317002EE4B52EBA052C
:03031D002F80B678
:0E0320007582B2C002C00312017CD003D0026D
:05032E008A828B83228E
:0A033300AA82AB838A268B2775820D
:0E033D0024C002C0031202127582B012017CAD
:08034B00D003D0027C007D000C
:0A035300C3EC9531ED953250300AED
:04035D00BA00010BD6
:0E036100C002C003C004C005120299D005D02E
:0A036F0004D003D002AE20AF21A895
:0A037900228E828F8388F0E5301297
:0903830012780CBC00CA0D80C701
:0E038C007582B2C002C00312017CD003D00201
:05039A008A828B832222
:0C039F00AA82E57775F01EA4FBACF07D8F
:0A03AB0000EA2BF582ED3CF58322F9
:0403B5008533771203
:0403B900039F8534E5
:0403BD0028020260B0
:0403C10085357712F5
:0503C500039F02027518
:0903CA00E4F526F52775824012C6
:0603D30002127526007500
:0903D9002702758242120212751E
:0903E20024037525007582221226
:0603EB0001CC75241E7513
:0903F10025007582411201CC7552
:0903FA00241E75250075824312D2
:0C04030001CC75829C12017C7582800285
:02040F00017C6E
:05006A00E4F536F53756
:030411000203CA19
:0C041400AA827B00E57775F01EA42AF593
:0704200036EB35F0F5372241
:07042700AA82BAE00280780E
:05042E00BAE90280594B
:05043300BA0902804738
:05043800BA0A02800772
:05043D00BA0D02801061
:02044200807CBC
:08044400741E2536F536E4357F
:04044C0037F5370247
:0204500004DACC
:0704520075771E7578008527
:080459003682853783C00212D0
:070461001204858236858339
:030468003785369F
:03046B007785375B
:09046E007890001E1212918582A3
:0804770036858337D002805B5B
:08047F0074032536F536E4355F
:0504870037F537804E3F
:07048C0085368285378305E8
:0604930036E4B536020557
:01049900372B
:0C049A00752862C002120260D00280349B
:0704A60085368285378305CE
:0604AD0036E4B53602053D
:0104B3003711
:0C04B400752865C002120260D002801A98
:0704C00085368285378305B4
:0604C70036E4B536020523
:0104CD0037F7
:0C04CE00EA24E0F528C002120260D0020F
:0304DA008A8222F1
:06006F0075380075390030
:0804DD00AA82AB380538EB24BC
:0A04E50000F582E43400F583EAF02C
:0A04EF0075F0FAE5388485F0382234
:0604F900AA390539EA24CE
:0A04FF0000F582E43400F583E0FA12
:0A05090075F0FAE5398485F0398AAF
:02051300822242
:070515007538007539002262
:0E051C00AA82AB83ACF0121381FDBDFD047505
:03052A0082012229
:0E052D0074012AFDE43BFE8C078D828E838FC5
:0C053B00F0121381FDBDFE047582032246
:07054700BDFB0475820422D4
:0E054E0074022AFAE43BFB8A828B838CF01243
:0A055C001381FABAFD047582022231
:040566007582002278
:0C056A00E58275F008A4FAABF08A298B3A
:050576002A752B00E5D1
:0C057B003A75F008A4F582741825F0F51C
:0805870083752C08752D00029C
:02058F0002B5B3
:070591007529D0752A0075E1
:060598002B00752CE0753C
:08059E002D019000000202B5DE
:0A05A600753A9075820E12056A7511
:0905B0003A9175820F12056A757B
:0905B9003A9275821012056A7570
:0905C2003A9375821112056A7565
:0905CB003A9475821212056A755A
:0905D4003A9575821312056A754F
:0905DD003A9675821412056A7544
:0905E6003A9975821512056A7537
:0905EF003AA075821612056A7526
:0905F8003AA175820012056A7532
:090601003AA275820112056A7526
:09060A003AA375820212056A751B
:090613003AA475820312056A7510
:09061C003AA575820412056A7505
:090625003AA675820512056A75FA
:09062E003AA775820612056A75EF
:090637003AA875820712056A75E4
:090640003AB575821712056A75BE
:090649003AB675821812056A75B3
:090652003AB775821912056A75A8
:09065B003AA975820812056A75BE
:090664003AB075820912056A75AD
:09066D003AB175820A12056A75A2
:090676003AB275820B12056A7597
:09067F003AB375820C12056A758C
:080688003AB475820D02056A07
:0506900085823B853D61
:070695003C7582170205917C
:02069C00AA8230
:05069E00E541B502007A
:0406A3004021AB4007
:0506A700E542B503006F
:0A06AC0040158B337534008A82C0BC
:0D06B60002C0031203B5D003D0020B80E494
:0306C3000A80D8D2
:0106C6002211
:0906C700AA820AE54304FB7C0051
:0706D0008544828545838506
:0C06D70046F0C002C003C004121369AD5D
:0E06E30082AE83D004D003D0028C077800C30F
:0C06F100EF9DE89E5030EC2AFDEC254403
:0A06FD00FEE43545FFA8468E828F0B
:0B0707008388F012138124E0F5348B8E
:0C071200338D82C002C003C0041203B586
:09071E00D004D003D0020C80A924
:0107270022AF
:0407280085473512BA
:09072C0003C1AA82BA9902C3229A
:03073500BAA10066
:07073800400874B7B5020090
:03073F0040012254
:02074200D322C0
:0807440085824885834985F098
:08074C004A74012548FDE43563
:0A07540049FEAF4A8D828E838FF0BC
:09075E00121381FD8D4B7401257D
:0707670048FDE43549FEAF37
:09076E004A74012DF54DE43EF53D
:040777004E8F4F85CD
:06077B004D82854E8385CE
:060781004FF0121381F598
:030787005085504A
:06078A004C74032548F544
:0507900051E43549F5BC
:0307950052854A40
:0B079800538D828E838FF01213818539
:0607A3005182855283859E
:0807A90053F0121278740325CD
:0707B10048FAE43549FBACF6
:0607B8004A0ABA00010B21
:0C07BE008A828B838CF0E5501212788543
:0607CA0048828549838589
:0B07D0004AF0121381FABA0102800FF8
:0507DB00BA02028012C9
:0507E000BA03028015C0
:0507E500BA0420801899
:0807EA00E54CFA14F54C8016F1
:0807F200E54CFA04F54C800E01
:0807FA00E54BFA14F54B8006F3
:06080200E54BFA04F54B82
:0A080800E54BFA7005754B1D801CCE
:03081200BA1D000C
:070815004005754B00801245
:09081C00E54C7005754C0F8009D4
:0908250074F1254C5003754C00E0
:05082E00854B82854CA2
:0C08330047C005C006C007120728D00708
:0C083F00D006D005501BAA4B8D828E8382
:09084B008FF0EA121278AA4C8524
:060854004D82854E8385F4
:06085A004FF0EA021278E3
:010860002275
:0808610085825485835585F062
:080869005674052554FDE43529
:0A08710055FEAF568D828E838FF086
:08087B00121381F8B8010122FB
:0A08830074012554F8E43555F9AA74
:0C088D0056888289838AF0121381F87467
:09089900012554FAE43555FBACCD
:0608A200560ABA00010B2A
:0C08A8008A828B838CF0121381F5358856
:0E08B40082C005C006C0071203C1AA82D00789
:0908C200D006D005BA000280182E
:0508CB00BA2E02802896
:0508D000BA9902801836
:0E08D500BAA02A8D828E838FF07402021278F0
:0A08E3008D828E838FF0E4021278FC
:0B08ED008D828E838FF0740102127860
:0A08F8008D828E838FF0E4021278E7
:0A0902008D828E838FF0E4021278DC
:08090C0085825785835885F0B0
:0909140059121381703874012599
:07091D0057FDE43558FEAF61
:0C092400598D828E838FF0121381FD74B8
:09093000012557FEE43558FFA82B
:06093900590EBE00010F83
:0C093F008E828F8388F0121381F53375CF
:07094B0034918D820203B517
:0A09520074032557FDE43558FEAF8D
:0C095C00598D828E838FF0121381FD7480
:09096800032557FEE43558FFA8F1
:090971005974012EF55AE43FF51A
:04097A005B885C85B5
:06097E005A82855B8385AF
:060984005CF0121381F586
:0C098A00358D82C006C007C0001203C1FA
:0E099600AD82D000D007D0068E828F8388F00D
:0809A400121381F9855A8285C6
:0609AC005B83855CF01284
:0509B2001381F533750F
:0C09B70034008982C005C006C007C000E3
:0E09C3001203B5D000D007D006D005BD9502B6
:0209D10080584C
:0A09D30074012557FDE43558F9AA18
:0C09DD00598D8289838AF0121381FA8EF2
:0E09E900828F8388F0121381FEEAB506028029
:0109F70003FC
:0309F800020B2FC0
:0A09FB0074012557FBE43558FCADEC
:060A0500590BBB00010CBF
:0C0A0B008B828C838DF0121381FB855AC6
:080A170082855B83855CF0120F
:090A1F001381FCEBB50402800315
:030A2800020B2F8F
:070A2B008557828558838581
:0B0A320059F0121381FBBB010280127F
:050A3D00BB0202804530
:060A4200BB0303020ABF22
:060A4800BB0403020AF7E3
:010A4E002285
:0A0A4F0074012557FBE43558FCAD97
:0C0A5900598B828C838DF0121381FB748A
:090A6500012557FCE43558FDAEF3
:060A6E00590CBC00010D53
:0C0A74008C828D838EF0121381F5337597
:070A800034928B820203B5E2
:0A0A870074012557FBE43558FCAD5F
:0C0A9100598B828C838DF0121381FB7452
:090A9D00012557FCE43558FDAEBB
:060AA600590CBC00010D1B
:0C0AAC008C828D838EF0121381F533755F
:070AB80034948B820203B5A8
:0A0ABF0074012557FBE43558FCAD27
:0C0AC900598B828C838DF0121381FB741A
:090AD500012557FCE43558FDAE83
:060ADE00590CBC00010DE3
:0C0AE4008C828D838EF0121381F5337527
:070AF00034938B820203B571
:0A0AF70074012557FBE43558FCADEF
:0C0B0100598B828C838DF0121381FB74E1
:090B0D00012557FCE43558FDAE4A
:060B1600590CBC00010DAA
:0C0B1C008C828D838EF0121381F53375EE
:070B280034908B820203B53B
:0A0B2F0074012557FBE43558FCADB6
:060B3900590BBB00010C8A
:0C0B3F008B828C838DF0121381F53375CE
:070B4B0034958A820203B514
:0C0B5200AA82AB83ACF07401B55D4B745B
:0E0B5E00012AFDE43BFE8C078D828E838FF012
:0E0B6C00121381FD74012AFEE43BFF8C000E83
:040B7A00BE00010FA9
:0C0B7E008E828F8388F012138114F547DB
:0E0B8A008D82C002C003C004120728D004D020
:0E0B980003D002500B8A828B838CF074010212
:020BA6001278C3
:0C0BA8007403B55D4B74012AFDE43BFEB4
:0E0BB4008C078D828E838FF0121381FD1D74CD
:0D0BC200012AFEE43BFF8C000EBE00010F77
:0C0BCF008E828F8388F0121381F5478D11
:0E0BDB0082C002C003C004120728D004D00359
:0D0BE900D002500B8A828B838CF0740302C3
:020BF600127873
:0C0BF8007404B55D4B74012AFDE43BFE63
:0E0C04008C078D828E838FF0121381FD0D748C
:0D0C1200012AFEE43BFF8C000EBE00010F26
:0C0C1F008E828F8388F0121381F5478DC0
:0E0C2B0082C002C003C004120728D004D00308
:0D0C3900D002500B8A828B838CF074040271
:020C4600127822
:0C0C48007402B55D4B74012AFDE43BFE14
:0E0C54008C078D828E838FF0121381FD740148
:0C0C62002AFEE43BFF8C000EBE00010FD8
:0C0C6E008E828F8388F012138104F547FA
:0E0C7A008D82C002C003C004120728D004D02F
:0E0C880003D002500B8A828B838CF074020220
:020C96001278D2
:010C98002239
:0D0C9900AA82AB83ACF0C002C003C00412FD
:0E0CA6000861D004D003D0028A828B838CF0C8
:0E0CB400C002C003C00412090CD004D003D04B
:0A0CC20002855E5D8A828B838CF050
:0E0CCC00C002C003C004120B52D004D003D0EB
:0E0CDA00028A828B838CF0C002C003C0041219
:0E0CE8000744D004D003D0028A828B838CF0A4
:0E0CF600C002C003C004120861D004D003D0B5
:0E0D04000274052AFAE43BFB8A828B838CF092
:060D1200121381F582229C
:040D1800855F3512AC
:070D1C0003C1AA82BAA10085
:070D2300400874B7B502009F
:030D2A0040012263
:050D2D00BA9902C32287
:020D3200D322CA
:080D340085826085836185F072
:060D3C0062121381FD8D1F
:080D42006374012560FFE43534
:0A0D4A0061FEAA628F828E838AF098
:090D5400121381FF8F6474012564
:050D5D0060F56AE435B9
:040D620061F56B8547
:050D6600626C74012520
:050D6B006AF566E435A5
:040D70006BF5678533
:030D74006C688523
:060D77006682856783859A
:060D7D0068F0121381F57D
:030D830069856916
:080D86006574032560FFE435EC
:050D8E0061FEAA628570
:060D93006A82856B838576
:0C0D99006CF01213818F828E838AF0129E
:090DA500127874032560FAE435AC
:090DAE0061FBAC620ABA00010B02
:0C0DB7008A828B838CF0E569121278BDF3
:040DC3000102800F9A
:050DC700BD02028012D4
:050DCC00BD03028015CB
:050DD100BD04208018A4
:080DD600E565FA14F5658016CD
:080DDE00E565FA04F565800EDD
:080DE600E564FA14F5648006CF
:060DEE00E564FA04F5645F
:050DF4008564828565A5
:070DF9005F120D185020AA43
:050E000064856A828593
:070E05006B83856CF0EA121B
:050E0C001278AA6585C3
:060E1100668285678385FF
:080E170068F0EA121278801E57
:070E1F008560828561838577
:070E260062F0121381FAB51E
:060E2D00630E8560828562
:060E330061838562F012EC
:040E3900102480E21F
:0A0E3D0074062560FAE43561FBAC91
:0C0E4700628A828B838CF0121381FDA361
:0E0E5300121381FE4D702F8A828B838CF074F7
:0A0E6100FF121278A374FF1212783A
:070E6B00856082856183852B
:070E720062F0121381FFB5CD
:060E7900633085608285F4
:060E7F0061838562F012A0
:040E8500102480E2D3
:0E0E8900C3E49D74808EF063F08095F05014E9
:050E97001DBDFF011E5E
:0D0E9C008A828B838CF0ED121278A3EE0297
:020EA9001278BD
:010EAB002224
:080EAC0085826D85836E85F0DF
:090EB4006F1213817038740125DE
:070EBD006DFDE4356EFEAF90
:0C0EC4006F8D828E838FF0121381FD74FD
:090ED00001256DFEE4356EFFA85A
:060ED9006F0EBE00010FC8
:0C0EDF008E828F8388F0121381F533752A
:070EEB0034998D820203B56A
:0A0EF2007408256DFDE4356EFEAFB7
:0C0EFC006F8D828E838FF0121381604690
:0A0F08007403256DF8E4356EF9AAB4
:0C0F12006F888289838AF0121381F874C2
:090F1E0003256DFAE4356EFBAC0D
:060F27006F0ABA00010B85
:0C0F2D008A828B838CF0121381F53375DF
:0B0F390034A08882C005C006C007126B
:0A0F440003B5D007D006D0058044A5
:0A0F4E007403256DFAE4356EFBAC68
:0C0F58006F8A828B838CF0121381FA7474
:090F640003256DFBE4356EFCA8C9
:060F6D006F0BBB00010C3C
:0C0F73008B828C8388F0121381F533759B
:0B0F7F0034008A82C005C006C00712C3
:080F8A0003B5D007D006D00525
:0A0F92007401256DFAE4356EFBAC26
:0C0F9C006F8A828B838CF0121381FA7430
:090FA80001256DFBE4356EFCA887
:090FB1006F74012BF570E43CF5AE
:040FBA007188728543
:060FBE007082857183853D
:060FC40072F0121381F52A
:0C0FCA00358A82C003C004C005C006C008
:0E0FD60007C0001203C1AA82D000D007D006C7
:0E0FE400D005D004D003BAA00D8D828E838F6D
:080FF200F07401121278800A6C
:0A0FFA008D828E838FF0E4121278CE
:0C1004008B828C8388F0121381FB8570B6
:08101000828571838572F012E4
:051018001381F53375A2
:07101D0034998B820203B538
:0D102400AA82AB83ACF0C002C003C004126E
:06103100122D7577047515
:0C103700780012139DAD82AE83D004D06F
:0E10430003D0020DBD015E8A828B838CF012F9
:081051001381FEBE0102804F75
:0E10590074012AFEE43BFF8C008E828F838898
:0E106700F0121381FE74012AFFE43BF88C01A5
:051075000FBF0001089F
:0C107A008F82888389F012138114F55FC7
:0E1086008E82C002C003C004C005120D18D037
:0E10940005D004D003D002500B8A828B838CCF
:0610A200F0740102127857
:0E10A800BD035E8A828B838CF0121381FEBE24
:0410B6000302804F62
:0E10BA0074012AFEE43BFF8C008E828F838837
:0E10C800F0121381FE1E74012AFFE43BF88C27
:0610D600010FBF0001083C
:0C10DC008F82888389F0121381F55F8EEB
:0E10E80082C002C003C004C005120D18D0055E
:0E10F600D004D003D002500B8A828B838CF082
:051104007403021278E3
:0E110900BD045E8A828B838CF0121381FEBEC1
:041117000402804FFF
:0E111B0074012AFEE43BFF8C008E828F8388D5
:0E112900F0121381FE0E74012AFFE43BF88CD5
:06113700010FBF000108DA
:0C113D008F82888389F0121381F55F8E89
:0E11490082C002C003C004C005120D18D005FC
:0E115700D004D003D002500B8A828B838CF020
:05116500740402127881
:0E116A00BD02598A828B838CF0121381FDBD69
:031178000201224F
:0E117B0074012AFDE43BFE8C078D828E838F6B
:0E118900F0121381FD74012AFEE43BFF8C007E
:051197000EBE00010F77
:0C119C008E828F8388F012138104F55FAF
:0E11A8008D82C002C003C004120D18D004D006
:0E11B60003D002500B8A828B838CF0740202ED
:0211C40012789F
:0111C6002206
:0D11C700AA82AB83ACF0C002C003C00412CA
:0E11D4000EACD004D003D0028A828B838CF044
:0E11E200C002C003C004120D34D004D003D0EC
:0E11F0000274052AFAE43BFB8A828B838CF0A2
:0611FE00121381F58222AC
:051204007A10E4FBFC80
:0E120900E58225E0F582E58333F583EB33FBC8
:0A121700EC33FCEB9577F5F0EC9555
:09122100784006FCABF0438201A9
:03122A00DADD22E8
:07007500757301E4F574F559
:03007C0075F576A1
:04122D0085737785C9
:0312310074788549
:0312340075798544
:0A123700767A904E6D75F0C6744192
:0E1241001212AEAA82AB83ACF0FD74392AF50E
:09124F007374303BF574E43CF5C6
:0612580075E43DF576AAE5
:0A125E0075AB768A82747F5BF5831E
:011268002263
:09126900AA82AB838A738B7475B1
:06127200750075760022F4
:06003700E478FFF6D8FD9D
:080015007900E94400601B7A48
:05001D00009013E378E0
:03002200FA75A0CC
:0A00250000E493F2A308B8000205FE
:08002F00A0D9F4DAF275A0FF7C
:0E12780020F71030F6118883A88220F507F6C3
:05128600A88375830040
:01128B002240
:03128C00F280F7F6
:02128F00F0224B
:0B129100E5828577F0A4C582C0F085DF
:0A129C0078F0A4D0F025F0C583859A
:0812A60077F0A42583F58322F3
:0C12AE00AAF0FBE5828577F0A4FCADF00F
:0C12BA00E5838577F0A42DFDE435F0FEFF
:0C12C600E5828578F0A42DFDE5F03EFEE9
:0C12D200E433FFEA8577F0A42EFEE5F07F
:0C12DE003FFFE5838578F0A42EFEE5F0CC
:0C12EA003FFFE5828579F0A42EFEE5F0C0
:0B12F6003FFFEB8577F0A42FFFEA8597
:0A13010078F0A42FFFE5838579F052
:0C130B00A42FFFE582857AF0A42F8EF05D
:051317008D838C822291
:08131C00E577457860467A018F
:07132400E57725E0F577E510
:09132B0078334012F578E5829553
:0A13340077E583957840030A80E610
:03133E00C3E5788C
:0713410013F578E57713F5C1
:01134800772D
:0A134900C3E5829577F5F0E5839582
:08135300784005F58385F08266
:07135B00C3E57813F578E506
:061362007713F577DAE1D4
:011368002262
:08003D007800E84400600A7934
:030045000075A0A3
:0600480000E4F309D8FCFE
:08004E0078FAE84400600C7927
:0B00560001900000E4F0A3D8FCD9FAF0
:04136900AA82AB8326
:08136D001213816003A380F854
:0C137500C3E5829AF582E5839BF5832294
:0300080075817A85
:0A000B001213D3E582600302000324
:0E13810020F71430F6148883A88220F507E6C2
:06138F00A8837583002213
:03139500E280F7FC
:03139800E49322B9
:02139B00E0224E
:0E139D00C2D5E58330E70DD2D5E4C39582F5C5
:0613AB0082E49583F58346
:0A13B100E57830E70BE4C39577F50B
:0513BB0077E49578F5D0
:0113C00078B4
:0E13C10012131C30D50BE4C39582F582E4951F
:0313CF0083F58320
:0113D20022F8
:0413D30075820022FD
:00000001FF
